:100000000C949F030C94C7030C94C7030C94C70370
:100010000C94C7030C94C7030C94C7030C94C70338
:100020000C94C7030C94C7030C941D070C948C0705
:100030000C94C7030C94C7030C94C7030C94C70318
:100040000C94C7030C94C7030C94C7030C94C70308
:100050000C94C7030C94C7030C94C7030C94BE09FB
:100060000C94C7030C94C7030C94C7030C94C703E8
:100070000C94C7030C94C7030C94C7030C94C703D8
:100080000C94C7030C94C7030C94C7030C94C703C8
:100090000C94C7030C94C7030C94C7030C94C703B8
:1000A0000C94C7030C94C7030C94C7030000000012
:1000B000003E5B4F5B3E3E6B4F6B3E1C3E7C3E1CEE
:1000C000183C7E3C181C577D571C1C5E7F5E1C0034
:1000D000183C1800FFE7C3E7FF0018241800FFE7EB
:1000E000DBE7FF30483A060E2629792926407F05AE
:1000F0000507407F05253F5A3CE73C5A7F3E1C1CC4
:1001000008081C1C3E7F14227F22145F5F005F5F83
:1001100006097F017F006689956A6060606060946F
:10012000A2FFA29408047E040810207E2010080874
:100130002A1C08081C2A08081E101010100C1E0C7F
:100140001E0C30383E3830060E3E0E060000000011
:100150000000005F00000007000700147F147F14F8
:10016000242A7F2A1223130864623649562050003D
:1001700008070300001C2241000041221C002A1C29
:100180007F1C2A08083E0808008070300008080814
:100190000808000060600020100804023E51494534
:1001A0003E00427F400072494949462141494D3352
:1001B0001814127F1027454545393C4A49493141B9
:1001C000211109073649494936464949291E000087
:1001D00014000000403400000008142241141414DC
:1001E0001414004122140802015909063E415D59C8
:1001F0004E7C1211127C7F494949363E41414122D1
:100200007F4141413E7F494949417F090909013EFA
:10021000414151737F0808087F00417F4100204021
:10022000413F017F081422417F404040407F021C33
:10023000027F7F0408107F3E4141413E7F0909094A
:10024000063E4151215E7F09192946264949493216
:1002500003017F01033F4040403F1F2040201F3FDC
:100260004038403F63140814630304780403615961
:10027000494D43007F4141410204081020004141A3
:10028000417F04020102044040404040000307084F
:100290000020545478407F2844443838444444284B
:1002A000384444287F385454541800087E090218F2
:1002B000A4A49C787F0804047800447D400020407A
:1002C000403D007F1028440000417F40007C0478BE
:1002D00004787C080404783844444438FC18242406
:1002E0001818242418FC7C08040408485454542486
:1002F00004043F44243C4040207C1C2040201C3C03
:100300004030403C44281028444C9090907C4464F9
:10031000544C44000836410000007700000041368C
:10032000080002010204023C2623263C1EA1A16112
:10033000123A4040207A3854545559215555794144
:100340002154547841215554784020545579400C1B
:100350001E527212395555555939545454593955FC
:100360005454580000457C410002457D420001453F
:100370007C40F0292429F0F0282528F07C545545AC
:10038000002054547C547C0A097F4932494949323F
:100390003248484832324A4848303A4141217A3A54
:1003A00042402078009DA0A07D39444444393D401E
:1003B00040403D3C24FF2424487E4943662B2FFCCB
:1003C0002F2BFF0929F620C0887E09032054547979
:1003D000410000447D413048484A32384040227A4A
:1003E000007A0A0A727D0D19317D2629292F2826C7
:1003F0002929292630484D402038080808080808CF
:100400000808382F10C8ACBA2F102834FA00007B27
:10041000000008142A142222142A1408950022002D
:1004200095AA005500AAAA55AA55AA000000FF00E7
:10043000101010FF00141414FF001010FF00FF1024
:1004400010F010F0141414FC001414F700FF000056
:10045000FF00FF1414F404FC141417101F10101FD5
:10046000101F1414141F00101010F0000000001FC3
:10047000101010101F10101010F010000000FF10CE
:100480001010101010101010FF10000000FF1400CA
:1004900000FF00FF00001F10170000FC04F41414FC
:1004A0001710171414F404F40000FF00F7141414C8
:1004B00014141414F700F7141414171410101F1048
:1004C0001F141414F4141010F010F000001F101F6B
:1004D0000000001F14000000FC140000F010F010D9
:1004E00010FF10FF141414FF141010101F00000050
:1004F00000F010FFFFFFFFFFF0F0F0F0F0FFFFFF54
:100500000000000000FFFF0F0F0F0F0F38444438AA
:10051000447C2A2A3E147E02020606027E027E02E5
:1005200063554941633844443C04407E201E200604
:10053000027E020299A5E7A5991C2A492A1C4C7241
:1005400001724C304A4D4D303048784830BC625AC8
:10055000463D3E494949007E0101017E2A2A2A2A58
:100560002A44445F444440514A444040444A514034
:100570000000FF0103E080FF000008086B6B0836F5
:1005800012362436060F090F060000181800000066
:100590001010003040FF0101001F01011E00191D55
:1005A0001712003C3C3C3C0000000000F0F89C8E20
:1005B0008783878E9CF8F00000FEFF03030303038C
:1005C000070EFCF80000FEFF0303030303070EFC05
:1005D000F80000FFFF00000000000000FFFF000027
:1005E000FEFF8383838383C7EE7C380000F8FC0E14
:1005F00007030303070EFCF800003F7FE0C0808084
:10060000C0E07F3FFFFF01010101010101FFFF0089
:1006100000FFFF0C0C0C0C1C3E77E3C100007FFFB9
:10062000C0C0C0C0C0E0703F1F00001F3F70E0C0EE
:10063000C0C0E0703F1F00007FFFC1C1C1C1C1E366
:10064000773E1C00001F3F70E0C0C0C0E0703F1F3D
:10065000000000000001FFFF01000000D5F08D1434
:10066000A1C881CFD9F1AF200000000000250028EB
:10067000002B002E00310000000000240027002A7B
:10068000002D0030000404040404030405020202E7
:10069000020403020202020606060606060404021B
:1006A000020204040408020110408040102040802F
:1006B00040800802040180402010020110801020B8
:1006C000404020070605040100080A0B0C0D09082C
:1006D0000B000202020000090400000102020000F7
:1006E000052400100105240101010424020605244B
:1006F0000600010705810310004009040100020AF9
:1007000000000007050202400000070583024000C8
:10071000000403090412010002EF020140412336E4
:100720008000010102030141726475696E6F204C03
:100730004C430041726475626F7900003B0A1124DA
:100740001FBECFEFDAE0DEBFCDBF11E0A0E0B1E029
:10075000E6EBFAE102C005900D92A633B107D9F796
:1007600025E0A6E3B1E001C01D92AC3BB207E1F782
:1007700013E0CFE9D3E004C02197FE010E94530D9E
:10078000CE39D107C9F70E94580A0C94590D0C9420
:100790000000E8E6F1E0A0E0B8E000800EBC8111C6
:1007A000012C1197A0FDFDCF0192B9F70DB408956A
:1007B000FC0180916701882311F13FB7F89482E032
:1007C0008093E9002091F200822F90E0181619061C
:1007D00014F481E090E0882339F0289844E64093AF
:1007E00066014091F1004083222339F02091F2000C
:1007F000211103C02BE62093E8003FBF08958FEF3F
:100800009FEF08952FB7F89483E08093E9009091CB
:10081000E800892F807295FF04C09091F20080E477
:10082000891B2FBF089580915E0181110DC082E068
:1008300080935A0184E080935B0110925D011092D5
:100840005C0181E080935E018AE591E00895CF9399
:10085000DF931F92CDB7DEB76983DC01ED91FC9188
:100860000280F381E02D41E050E0BE016F5F7F4FD9
:1008700009950F90DF91CF91089583E08093E9006F
:100880008091F200882319F08AE38093E8000895AC
:100890000E94020490E00895CF93DF931F92CDB79A
:1008A000DEB7FC018485958597FD08C02FEF3FEFEB
:1008B000358724870F90DF91CF910895CE0101965F
:1008C0000E94D803019719F4898190E0F3CF8FEF4C
:1008D0009FEFF0CF0F931F93CF93DF931F92CDB76E
:1008E000DEB78C01FC018485958597FF0BC0CE0196
:1008F00001960E94D803019771F4898190E0F80174
:1009000095878487F801848595850F90DF91CF9135
:100910001F910F9108958FEF9FEFF1CFFC01848518
:10092000958597FD0BC09FB7F89482E08093E9000E
:100930008091F2009FBF90E0019608959FB7F894D0
:1009400082E08093E9008091F2009FBF90E00895DB
:100950004091540150915501209152013091530121
:1009600042175307B4F49091E8009570E1F3909129
:10097000E80092FD19C08093F1008091540190919C
:10098000550101968F739927892B19F48EEF809367
:10099000E800809154019091550101969093550182
:1009A0008093540181E0089580E00895DF92EF92F2
:1009B000FF920F931F93CF93DF93D82E8A01EB0101
:1009C0007B01E40EF51ECE15DF0559F0D7FE12C0EF
:1009D000FE0184910E94A80421968111F4CF0FEFAB
:1009E0001FEFC801DF91CF911F910F91FF90EF9002
:1009F000DF9008958881EECF0F931F93CF93DF93FD
:100A00001F92CDB7DEB782E0898342E450E06FECFD
:100A100076E080E80E94D6040E941304DC0112965E
:100A20000D911C910115110589F0D801ED91FC91F2
:100A30000280F381E02DBE016F5F7F4FC8010995F1
:100A400097FD04C0F80100851185ECCF89810F90D6
:100A5000DF91CF911F910F910895615030F0209157
:100A6000F100FC0120830196F8CF289884E680935A
:100A700066010895FC010E94D105319728F0685164
:100A80007C4F8F4F9F4FF9CFAB01FC010E94D105E6
:100A9000641775078E079F07C8F308958F929F927A
:100AA000AF92BF92CF92DF92EF92FF920F931F937C
:100AB000CF93DF936C017B018A0180910C01882325
:100AC00009F45AC080916701882309F455C08091C8
:100AD000590180FF05C08091E00082608093E000B2
:100AE000E801B12C8AEFA82E93E0892E2AE3922EFA
:100AF000209711F4BB20C9F10E940204811108C0A3
:100B0000AA94AA20C9F181E090E00E943A05F0CFB2
:100B10008C171D0611F00CF08C2F9FB7F894809263
:100B2000E9002091E80025FD02C09FBFE1CF282FFA
:100B300030E0C21BD30BF701815020F0419140936C
:100B4000F100FACFE20EF31EBB2021F09092E800F4
:100B5000B12CEBCF8091E80085FDE7CF9092E800C3
:100B6000BB24B394209709F3F3CF5D9884E6809378
:100B70005801101611063CF081E090E0F6019383D5
:100B8000828310E000E0C801DF91CF911F910F91A7
:100B9000FF90EF90DF90CF90BF90AF909F908F909D
:100BA0000895AEE4B1E02FB7F8947D918D919C91BA
:100BB00066B52FBFA89B05C06F3F18F47F5F8F4FAE
:100BC0009F4F22E0660F771F881F991F2A95D1F744
:100BD0000895AF92BF92CF92DF92EF92FF920F9360
:100BE0001F93CF93DF936C017B018B01040F151FC3
:100BF000EB015E01AE18BF08C017D10759F069912B
:100C0000D601ED91FC910190F081E02DC60109958E
:100C1000892B79F7C501DF91CF911F910F91FF903B
:100C2000EF90DF90CF90BF90AF90089590E00C943C
:100C30003A058FB18095807F669B88601C9B84609D
:100C4000089580E00C94C90380389105B8F46034AD
:100C50007105A0F490E121E061FD24E060FD220F28
:100C600062FD2295687F969FD0011124A80FA85994
:100C7000BE4F0C90022A40FF02260C9208958F92DC
:100C80009F92AF92BF92CF92DF92EF92FF920F931B
:100C90001F93CF93DF936D3089F0C0904601D090C1
:100CA00047016A30D1F4109245011092440188E066
:100CB000C80ED11CD0924701C092460181E090E05D
:100CC000DF91CF911F910F91FF90EF90DF90CF9028
:100CD000BF90AF909F908F90089500914401109124
:100CE0004501E5E06E9FE0011124C455DF4F480146
:100CF000F12CF5E0E12CFF1629F0CE010196FE0162
:100D0000E490EC01B12CA12C4E2D4170B6016A0D7E
:100D10007B1DC4010E942406E694FFEFAF1ABF0AB0
:100D200088E0A816B10481F7F394EFEF8E1A9E0ABB
:100D3000F6E0FF12DECF0A5F1F4F109345010093CC
:100D40004401BCCF089590E080E008958F929F9277
:100D5000AF92BF920F931F93CF93DF93CDB7DEB7C0
:100D6000A1970FB6F894DEBF0FBECDBF19A24230D7
:100D700008F44AE08E010F5D1F4F842E912CB12C98
:100D8000A12CA50194010E94310DE62FB901CA01E1
:100D9000EA3044F5E05DD801EE938D01232B242B3E
:100DA000252B79F790E080E0109769F0FD01019024
:100DB0000020E9F73197AF014A1B5B0BBD0188EBBF
:100DC00095E00E94E905A1960FB6F894DEBF0FBE2C
:100DD000CDBFDF91CF911F910F91BF90AF909F90AA
:100DE0008F900895E95CD7CFCF92DF92EF92FF9278
:100DF000CF93DF936B017C016DE288EB95E00E945D
:100E00003F06EC0166277727CB016C197D098E0917
:100E10009F094AE00E94A6068C0F9D1FDF91CF918B
:100E2000FF90EF90DF90CF90089542E050E062E3B2
:100E300071E088EB95E00C94E9051F920F920FB6D4
:100E40000F9211248F939F938091E1009091E10084
:100E5000937F9093E10083FF0FC01092E90091E02F
:100E60009093EB001092EC0092E39093ED001092BF
:100E7000670198E09093F00082FF22C093E0909386
:100E8000E9009091F200992319F09AE39093E80019
:100E900090915801992341F090915801915090936D
:100EA0005801911101C05D9A90916601992341F01A
:100EB00090916601915090936601911101C0289A1A
:100EC00084FF18C08091E2008E7E81608093E200F2
:100ED0008091E1008F7E8093E100809159018E7EA8
:100EE0008061809359019F918F910F900FBE0F9059
:100EF0001F90189580FFF7CF8091E2008E7E806171
:100F00008093E2008091E1008E7E8093E1008091E9
:100F100059018E7E8160E5CF1F920F920FB60F921E
:100F20001124CF92DF92EF92FF920F931F932F9392
:100F30003F934F935F936F937F938F939F93AF9361
:100F4000BF93EF93FF93CF93DF93CDB7DEB76C974B
:100F5000DEBFCDBF1092E9008091E80083FF25C07D
:100F600068E0CE0145960E942D0582EF8093E8004F
:100F70008D8987FF39C09091E80090FFFCCF982FB2
:100F8000907609F034C19E894F89588D2F89F88C4D
:100F9000911131C0803861F5809157018093F10043
:100FA0001092F1008EEF8093E8006C960FB6F894E3
:100FB000DEBF0FBECDBFDF91CF91FF91EF91BF910B
:100FC000AF919F918F917F916F915F914F913F91E1
:100FD0002F911F910F91FF90EF90DF90CF900F9086
:100FE0000FBE0F901F9018959EEF9093E800C7CF0B
:100FF0001092F100D5CF913059F48111D3CF413007
:10100000510581F6809157018D7F80935701CACF9A
:10101000933049F48111C6CF4130510519F68091C2
:1010200057018260F2CF953041F48091E80080FF53
:10103000FCCF20682093E300B5CF963009F0A9C01B
:101040000B8D1C8D22E01092E90010925501109238
:101050005401F2122EC010925301109252010E94BC
:10106000FC041F8299E09983FA8291E09E8390EAC2
:1010700098879AEF99872091540130915501275F05
:101080003F4F3C832B838D831092E90010925501D2
:1010900010925401109353010093520149E050E023
:1010A000BE016F5F7F4F80E00E94D6040E94FC0467
:1010B00079CF10935301009352010E941304DC0175
:1010C00012960D911C910115110509F451C1D80119
:1010D000ED91FC910480F581E02DBE016B5E7F4FA8
:1010E000C8010995009709F03EC1F80100851185F6
:1010F000EACFF3E0FF120EC08F89882309F440C0C5
:10110000823061F440E867E083E397E00E94080AD8
:10111000811148CF81E28093EB0047CF813029F4E1
:1011200040E86BE087E297E0F1CF833099F70E94C7
:101130001304DC011296ED90FC908E010F5F1F4F9F
:101140006801E114F10479F0D701ED91FC9106807A
:10115000F781E02DB801C7010995080F111DF701AE
:10116000E084F184EECFD8011C92F60101900020BA
:10117000E9F73197BF016C197D0940E0C601C6CF80
:1011800061E177E0FB01449150E080E80E94D604E1
:1011900009CF973009F4BECF983021F481E08093D5
:1011A000F10000CF993009F0FDCE837009F0B2CF85
:1011B000EEE0F1E081E031E096E32191222371F04D
:1011C0008093E9003093EB00DF0111972C9120937D
:1011D000EC009093ED008F5F873079F78EE7809376
:1011E000EA001092EA008F8980936701DBCE8B8D35
:1011F0009C8D1092E9001092550110925401909329
:10120000530180935201898D811192C08E899D89ED
:10121000913A49F4813209F07DCF47E050E065E032
:1012200071E080E0B3CF913209F074CF833269F47A
:101230008F89988DB0E0A0E0809301019093020126
:10124000A0930301B0930401ADCE803269F4809184
:10125000E80082FFFCCF67E085E091E00E942D0569
:101260008BEF8093E8009ECE823209F09BCE8F896F
:1012700080930C01EEEFFFE7859194918B3F9C4D9D
:1012800051F1E0E0F8E08091050190910601A09114
:101290000701B0910801803B9440A105B105F1F42C
:1012A00080910C0180FD1AC0EE3F8AE0F80789F5B5
:1012B00087E797E791838083809160008093560150
:1012C00088E19BE00FB6F894A895809360000FBE6C
:1012D0009093600067CEEEEFFAE0D5CF80819181E8
:1012E0008737974709F05ECEA895809160008861A6
:1012F000809360008091560180936000EE3F2AE069
:10130000F20789F08091FE0A9091FF0A9183808311
:1013100049CE808191818737980751F29093FF0AD7
:101320008093FE0AC5CF1092FF0A1092FE0A3ACEB1
:101330000E941304DC0112960D911C9101151105F8
:1013400009F4E8CED801ED91FC910190F081E02DF7
:10135000BE016B5E7F4FC8010995811123CEF80154
:1013600000851185EBCF181619060CF41BCED2CED2
:10137000F1E0FF12BECE65E177E004CF0F920FB629
:101380008F939F93EF93FF93809149018D5F8D37EA
:1013900008F08D5780934901EAE4F1E080818E4F97
:1013A000808391819F4F918382818F4F828383813C
:1013B0008F4F8383EEE4F1E080818F5F80838181B2
:1013C0008F4F818382818F4F828383818F4F83836D
:1013D0008FB18F6066991C9B88278F3681F480912E
:1013E0004801981B963068F0E0E0F8E087E78083DA
:1013F000818388E180936000F0936000FFCF909339
:101400004801FF91EF919F918F910FBE0F9018951A
:10141000EF92FF920F931F93CF93DF93F82E192F24
:10142000E62E042F81E0860F880F0E94A80483E037
:101430000E94A804CF2DD12FEC0EFD2EF11CCE154D
:10144000DF05B9F007FF13C0FE0184910E94A804D4
:10145000182F80E00E94A804812321968111EFCFEC
:10146000DF91CF911F910F91FF90EF9008958881A8
:10147000EDCF81E0F5CFE8E6F5E01382128288EE49
:1014800093E0A0E0B0E084839583A683B78388E1EE
:1014900091E0918380838FEF9FEF95878487E8EBBE
:1014A000F5E0138212828AE291E0918380830895AD
:1014B000789483E084BD83E085BD81E080936E00F5
:1014C000E1E8F0E083E08083E0E881E08083E1E927
:1014D00083E08083E0E981E08083E1EC87E0808342
:1014E000E3EC81E08083E0EC82E08083E2EC81E069
:1014F0008083EAE787E080838068808310926701B9
:1015000010925701109259018091D7008160809309
:10151000D70080EA8093D80089B5806189BD89B5FC
:10152000826089BD09B400FEFDCF81E090E00E9499
:101530003A058091D8008F7C80618093D80080919B
:10154000E000807F8093E0008091E1008E7E8093B8
:10155000E1008DE08093E200559A209A81EC80931F
:101560007C0081EF85B987EE84B982E38BB982EF85
:101570008AB9769A6E9880EF81BB10BA80E58CBDEF
:1015800081E08DBD85E00E9416065F9A85E00E948D
:1015900016065C98ECE5F6E085918EBD00000DB472
:1015A00007FEFDCFE936C1F75C9A81E880936400BD
:1015B00081E0809365000E9421060E94190687FF42
:1015C00015C05C9885EA8EBD00000DB407FEFDCF06
:1015D0005C9A2E982F982D98809164008062809359
:1015E000640081E083BF889513BEFCCF0E9419067A
:1015F00082FF37C02D980E94190684788438A1F4A0
:101600002D9A88EC0E9416062F986FEF82E090E0EA
:101610000E941F0D84EF91E00E943A052F9A0E94CC
:10162000190684788438D9F30E94190684718431AC
:10163000A1F42D9A88EC0E9416062E9860E082E0B4
:1016400090E00E941F0D84EF91E00E943A052E9ACF
:101650000E94190684718431D9F388EC0E94160621
:10166000C5CF2D9A82E090E00E94170D882309F4DF
:1016700056C03E9A3F9A81E090E00E94170D382FA5
:101680003470F32E81FF0AC031112E98C1EFDFEFC5
:101690000E94190686FF46C02E9A2F9A82E30E9466
:1016A00016060E9419068111F9CF80E1809300018E
:1016B000EEEAF6E02491EFE8F6E084918823C1F0A9
:1016C00090E0880F991FFC01E958F94FC591D4911A
:1016D000FC01E759F94FA591B4919FB7F89488811F
:1016E000E22FE0958E2388838C91E823EC939FBFB3
:1016F000809164008E7F8093640022E3222E332445
:10170000339420913801222309F4A7C010923801A4
:10171000E0E0F0E0EF2BA9F30E940000F0CF3E984C
:101720003F98A9CFFF2029F0C430D10511F42E9A9B
:101730002F9881E00E94C9034C2F4770B42E9E0160
:1017400043E0359527954A95E1F7C9019695982F7D
:1017500088279795879588599E4F70E060E02E3FC7
:10176000EFEF3E0771F18C010C561F4FDC0150E08A
:1017700040E0FB01E455FA4F6F01F601E40FF51F5D
:10178000E491F0E04F010B2C02C0880C991C0A94E4
:10179000E2F72F3F320739F05496EC905497E8283F
:1017A0005496EC925497BB2021F0F801E080E92890
:1017B000E0824F5F5F4F0F5F1F4F11964835510515
:1017C000E1F62F5F3F4F80589F4F685A7F4F603B35
:1017D000710529F60E9421068FE00E9416062196C7
:1017E000C931D10509F054CFFF2011F02F9A2D985F
:1017F00080E991E00E943A052D9A81E090E00E94F4
:10180000170D80FF4BCF8AE090E00E94170D9FEFED
:10181000980F9E3F08F042CF22E330E0309345011D
:101820002093440128E330E03093470120934601A0
:10183000CAE0D0E0682F88EB95E00E943F06219631
:10184000CE010E94170DC031D105A1F70E942106DB
:1018500088EE93E00E943A0521CF90914A01809151
:101860003901F92FF81B8F2F30910001F31740F445
:101870008F5F831708F04CCF33BE889513BE48CFD7
:101880003092380190933901E6E3F1E08081918153
:10189000019680839183E8E6F1E021112FEF8FEF2D
:1018A00021932193219321938150D0F710924701E6
:1018B000109246011092450110924401109241018C
:1018C0001092400180914001909141018038910532
:1018D0000CF0AAC0EDECF6E0849120917B00982FEB
:1018E000990F990F90722F7D922B90937B008770A8
:1018F000806480937C0080917A00806480937A0079
:1019000080917A0086FDFCCF40907800809179002C
:10191000582E50923F0140923E01249CE001259CAC
:10192000D00D1124D7FDEF9696E0D595C7959A95E1
:10193000E1F7C456DE4FD0933D01C0933C01D093F4
:101940004301C0934201E0904001F0904101A0901A
:101950003A01B0903B01CA15DB0541F04E0185010B
:10196000CA15DB0534F445018E0103C04701870128
:101970007E013401601A710A630177FE03C0FFEF34
:10198000CF1ADF0AD594C79480169106A4F041E0DF
:10199000B801C701CA15DB0511F4B701C8010E94DF
:1019A0002406D7FE05C031E0E31AF108C60CD71CA7
:1019B0000F5F1F4FE9CF109245011092440180E262
:1019C00090E09093470180934601D0933B01C093F0
:1019D0003A01B201052C000C880B990B57FE1CC074
:1019E0000E94F4060E94150760913C0170913D0130
:1019F000072E000C880B990B97FF12C00E94F4066B
:101A00000E941507809140019091410101969093A9
:101A100041018093400156CF4AE00E94A606E2CFE2
:101A20004AE00E94A606ECCF0E94210671CEF999E9
:101A3000FECF92BD81BDF89A992780B50895262FD3
:101A4000F999FECF92BD81BDF89A019700B40216B4
:101A500039F01FBA20BD0FB6F894FA9AF99A0FBE62
:101A60000895A1E21A2EAA1BBB1BFD010DC0AA1FDF
:101A7000BB1FEE1FFF1FA217B307E407F50720F0F7
:101A8000A21BB30BE40BF50B661F771F881F991F72
:101A90001A9469F760957095809590959B01AC01BB
:101AA000BD01CF010895EE0FFF1F0590F491E02DC9
:061AB0000994F894FFCF39
:101AB60010FFFFFFFF00E100000000000000C180F2
:101AC600810000000000000027044E0548043D0484
:101AD6008E044C046A04000000003F06E905A306D4
:061AE600A2060D0A00003B
:00000001FF
